:400000000080002011000000750A0000750A000080B500AF024A034B1B68136000F05EFDBC760040FA46004010B5054C237833B9044B13B10448AFF300800123237010BDBE
:400040008881FF1F0000000090640000084B10B51BB108490848AFF300800848036803B910BD074B002BFBD0BDE81040184700BF000000008C81FF1F90640000C880FF1F9A
:400080000000000080B400AF034B04221A6000BFBD4680BC704700BFA881FF1F80B582B000AF786039603968786802F0F7FD0346002B15D04FF00001786802F003FE034611
:4000C000002B0DD00A49386802F0F2FD0346002B06D0084A7B681360064A3B68536002E0054801F059FC00BF0837BD4680BD00BF00006041DC81FF1F98640000B0B588B065
:4001000004AF786007F10C031946786804F0FCF80246184B1A60FB680021184604F0F4F80246154B1A60134B1B68184602F054F804460D46104B1B68184602F04DF8024628
:400140000B46CDE90223CDE900450C4A64210C4803F07CFA0A4801F01FFC064B1A68064B1B6819461046FFF799FF00BF1037BD46B0BD00BFB081FF1FB481FF1FB864000085
:400180000482FF1F80B582B000AF0346FB71012001F050FEFB79002B02D0012B0DD019E0C72001F03FFD40F28F1001F04BFD002001F040FE01F0D6FD15E040F28F1001F015
:4001C00031FDC72001F03EFD002001F033FE01F0C9FD08E040F28F1001F024FD40F28F1001F030FD00BF00BF0837BD4680BD00BF80B500AF01F03AF800BF80BD90B585B0D2
:4002000002AF012001F038F80346FB80B7F90630184601F04DF83860386801F0DDFF03460C46CDE9003401230E4A64210E4803F00DFA0D4801F0B0FB4FF08041386802F02F
:4002400041FD0346002B04D0012000F019FF012303E0002000F014FF002318460C37BD4690BD00BFE0640000E481FF1F0000000090B587B002AF022000F0FEFF0346FB810A
:40028000B7F90E30184601F013F8B860B86801F0A3FF4FF00002424B01F0F2FF03460C461A4623463CA1D1E9000101F035FE03460C461846214602F0F5F903467B600020D7
:4002C00001F0DAF9002000F0DBFE002001F0F0F90220FFF757FF334B1B687968184602F0FBFC0346002B18D0012001F0C5F9786801F072FF03460C46CDE900342A4A202118
:400300002A4803F0A3F9294801F08EFA274801F043FB0020FFF736FF39E0224B5B687968184602F0BBFC0346002B18D0012000F0A7FE786801F050FF03460C46CDE9003401
:400340001B4A2021194803F081F9184801F06CFA164801F021FB0120FFF714FF17E0012001F0A6F9786801F037FF03460C46CDE90034104A20210D4803F068F90B4801F001
:4003800053FA0A4801F008FB0220FFF7FBFE00BF1437BD4690BD00BFB81E85EB5178364000001640DC81FF1F04650000E481FF1F286500004C65000080B584B000AF03469F
:4003C000FB71274801F0E8FAFB79532B06D1254801F02AFA234801F0DFFA3CE0FB79542B1AD1FFF70BFF0346FB60FB68012B09D11D4801F019FA1C4801F0CEFA012001F030
:4004000007FB28E0194801F00FFA184801F0C4FA002001F0FDFA1EE0FB79502B02D1FFF727FF18E0FB79412B09D1002001F0F0FA0F4801F0F9F90E4801F0AEFA0BE0FB792F
:40044000422B08D1012001F0E3FA0A4801F0ECF9084801F0A1FA00BF1037BD4680BD00BF7465000094650000B8650000D0650000EC650000FC65000080B582B000AF2B4BDC
:400480001B78002B0BD101F093F90346652B06D1264B01221A706C2001F0ACF942E0234B1B78012B3ED1214B00221A7001F080F90346FB71FB79184601F09CF9FB79184676
:4004C00001F050FA0A2001F04DFA0D2001F04AFAFB79432B06D1164B02221A60154AFB7913701FE0144B1B78472B06D1104B03221A60104AFB79137014E0FB79532B0BD0A9
:40050000FB79542B08D0FB79502B05D0FB79412B02D0FB79422B05D1054B01221A60054AFB7913700837BD4680BD00BFB881FF1FA881FF1FAC81FF1F6882FF1F80B500AF7D
:4005400062B601F0ADF901F0D1F800F077FEFFF74FFE01F0C9FA01F029FC002001F06AFC1C4801F077FC1C4801F070FA1B4B1B68012B0BD11A4801F00FFA1A4B1B781846FF
:40058000FFF71AFF154B00221A60EFE7134B1B68022B09D1144801F0FFF91448FFF7AEFD0E4B00221A60E1E70C4B1B68032B06D10F4801F0F1F9094B00221A60D6E7074B63
:4005C0001B68042BD2D1FFF753FE044B00221A60CCE700BF8500000079040000A881FF1F10660000AC81FF1F58660000E481FF1FA066000080B582B000AF786039603A6888
:400600000021786802F0A9FB00BF0837BD4680BD80B584B000AFF860B9607A607A68B968F86802F08FFB00BF1037BD4680BD00BF80B483B000AF0346FB71FEE780B487B083
:4006400000AF7860396000233B6100237B6127E07B699B007A6813441B68BB60BB68FB73BB6823F0FF03BB6014E03B695B003A6813441B781A46BB68134419463B695B00A4
:400680003A6813445B780B703B6901333B61FB7B013BFB73FB7B002BE7D17B6901337B617B69262BD4D900BF1C37BD4680BC704780B582B000AF3D4B0E221A803C4B1822FF
:4006C0001A703C4B19221A803B4B18221A703B4B19221A803A4B18221A703A4B77221A80394B18221A70394B45F6BF521A80384B18221A70374B02221A704FF04023082279
:400700001A70354B03221A70344B354A1278D2B21A70344B08221A80334B41F251221A800023FB7019237B6014E0FB785B00DAB22E4B1B78DBB203F00103DBB21343DBB276
:4007400003F00303FB704FF4F07001F0D1FB7B68013B7B607B68002B02D0FB78032BE4D17B68002B02D10320FFF762FF204B4FF480721A801E4B07221A701E4B00221A70BF
:400780001D4B48221A701A4B00221A701B4B02221A701B4A1A4B1B78DBB243F01F03DBB2137000BF0837BD4680BD00BF804000408240004084400040864000408840004058
:4007C0008A4000408C4000408E40004090400040924000400043004000420040A1460040080100492242004020420040254200400440004006400040084000400140004035
:40080000A243004080B582B000AF1F4B1B78FB711E4B1B78BB711E4B1B787B711D4AFB7903F00703DBB213701B4AFB791B09DBB21370164ABB7943F00303DBB21370144AD4
:400840007B7943F00303DBB21370144B07221A70134B40221A70134B40221A70124B70221A70124B20221A700A2000F0F5FB084A7B791370054ABB7913700D4B44221A70D2
:4008800000BF0837BD4680BDCF010049F8460040F94600406E5800406F5800400D5100400159004003590040205B0040235B00407658004080B586B000AF72B6544A544BFD
:4008C0001B78DBB243F00403DBB213700023FB7513E0FA7D13465B0013445B004D4A13443B613B691A683B699B889BB219461046FFF780FEFB7D0133FB75FB7D072BE8D9B7
:400900000023FB751CE0FA7D13469B0013445B00414A1344FB60FB681B68BB60FB685B687B60FB681A7A5B7A1B0213437B807B881A467968B868FFF76BFEFB7D0133FB75B3
:40094000FB7D002BDFD035494FF09040FFF776FE04213348FFF74EFE042232493248FFF757FE324A314B1B78DBB243F00203DBB213702F4A2E4B1B78DBB243F00203DBB2AF
:4009800013702C4A2B4B1B78DBB243F04003DBB21370294A284B1B78DBB243F01003DBB21370082225492648FFF732FE0A2225492548FFF72DFE082224492548FFF728FE52
:4009C000082224492448FFF723FE082223492448FFF71EFE234A234B1B78DBB243F00803DBB21370204B61221A70FFF761FE1E4B81221A701D4B01221A70FFF703FF0E22E0
:400A00000C491B48FFF704FE00BF1837BD4680BDE8460040E8660000186700009C00004800760040740C0048087600400350014013500140A0430040C2430040480C004821
:400A400002510040500C0048C05100405C0C004812510040640C0048225100406C0C004832510040224300400048004004000840B043004080B500AF02F038F903461B682E
:400A80000C2B00D1FEE7FEE780B584B000AF7860104B1A687B6813441A460F4BD31AB3F5006F09DC0B4B1B68FB600A4B1A687B681344084A136007E002F018F902460C234F
:400AC00013604FF0FF33FB60FB6818461037BD4680BD00BFCC80FF1FA082FF1F80B586B000AF224B7B61224B3B61204B7B6135E03B691B68FB603B695B68BB603B699B6893
:400B00003B6000237B600CE0FB681A68BB681A60BB680433BB60FB680433FB607B6804337B607A683B689A42EED13B69DB683B6000237B6008E0BB6800221A60BB680433AE
:400B4000BB607B6804337B607A683B689A42F2D13B6910333B617B69013B7B617B69002BC6D102F0C9F8FFF7E9FCFEE701000000F868000080B582B000AF194B194A1A60F1
:400B8000194A194B1B6843F40073136000237B600FE07B68032B04D8144A7B6852F8233000E0134B13497A6841F822307B6801337B607B682F2BECD90F4B1B78DAB20F4B48
:400BC0001A700F4B0B4A1A60FFF774FE00F01CF80C4B00221A6000BF0837BD4680BD00BF0CED00E00004FA0514ED00E000000000750A00000080FF1FBC760040C480FF1F38
:400C000008ED00E0C080FF1F80B483B000AF134B7F221A70124B80221A707F23FB710CE0FB79DB0003F1804303F5F043FA79013AD2B21A70FB79013BFB71FB79002BEFD1F7
:400C4000FB79DB0003F1804303F5F04300221A7000BF0C37BD4680BC704700BFD180FF1FD080FF1F80B485B000AF03460A46FB711346BB710123FB60FB79172B2FD8BB79F1
:400C8000002B0ED0FB791A01184B1344FA791101164A0A441278D2B242F02002D2B21A700DE0FB791A01114B1344FA7911010F4A0A441278D2B222F02002D2B21A70FB7920
:400CC0001A010A4B1344FA791101084A0A441278D2B242F00102D2B21A700023FB60FB6818461437BD4680BC704700BF1070004080B485B000AF0346FB710123FB60FB79F8
:400D0000172B1DD8FB791A01104B1344FA7911010E4A0A441279D2B242F00402D2B21A71FB791A01094B1344FA791101074A0A441278D2B242F00102D2B21A700023FB608D
:400D4000FB6818461437BD4680BC70471070004080B485B000AF03460A46FB711346BB710123FB60FB79172B1BD8FB791A01104B13441B78DBB223F00E03FB72FB791A0166
:400D80000B4B1344BA795200D2B252B202F00E0251B297F90B200A4352B2D2B21A700023FB60FB6818461437BD4680BC704700BF1070004080B485B000AF0346FB710B463D
:400DC000BB8013467B800123FB60BB8841F6FF72934202D14FF40053BB807B8841F6FF72934202D14FF400537B80FB79172B17D8FB79DB0003F1804303F5EC430433BB6079
:400E0000BB68BA881A80FB79DB0003F1804303F5EC430633BB60BB687A881A800023FB60FB6818461437BD4680BC704780B485B000AF03460A46FB711346BB710123FB60D2
:400E4000FB79172B07D8FB791A01064B1344BA795A720023FB60FB6818461437BD4680BC704700BF1070004090B484B000AF0446084611461A462346FB710346BB710B4697
:400E80007B7113463B710123FB60FB79172B34D8FB79DB0003F1804303F5EC43BA7902F07F02D1B27A79D201D2B20A43D2B21A70FB79DB0003F1804303F5EC433A7E12010D
:400EC000D1B23A7902F00F02D2B20A43D2B25A70FB79DB0003F1804303F5EC433A7F02F00F02D2B29A70FB79DB0003F1804303F5EC430022DA700023FB60FB681846103704
:400F0000BD4690BC704700BF80B582B000AFFF23FB7100F0F5FF0346BB71104B1B78182B12D90F4B1B78FB710C4B1B78013BDAB20A4B1A70FB79DB0003F1804303F5F043B8
:400F40001B78DAB2064B1A70BB79184600F0DCFFFB7918460837BD4680BD00BFD080FF1FD180FF1F90B484B000AF0446084611461A462346FB710346BB800B46BB71134688
:400F8000FB700123FB6097F90730002B23DBBB8823F47F6323F00F039BB2002B1BD1FB79DB0003F1804303F5F043BB60BB68BA881A80FB79DB0003F1804303F5F043BA79E3
:400FC0009A70FB79DB0003F1804303F5F043FA78DA700023FB60FB6818461037BD4690BC704700BF80B485B000AF0346FB710B46BB8013467B800123FB6097F90730002B91
:4010000017DBFB79DB0003F1804303F5F0430433BB60BB68BA881A80FB79DB0003F1804303F5F0430633BB60BB687A881A800023FB60FB6818461437BD4680BC704700BFB9
:4010400080B483B000AF0346FB7101BE00BF0C37BD4680BC704700BF80B582B000AF0346FB80FB88054A127802FB03F3184600F03FFF00BF0837BD4680BD00BFE080FF1FFF
:4010800080B485B000AF0346FB710B4B1B78DBB223F00203FB730849FB795B00DBB203F00203DAB2FB7B1343DBB20B7000BF1437BD4680BC704700BF2051004080B500AF0E
:4010C00041F6FF734FF480420121022000F04CFA03461A460A4B1A7041F6FF7341F6FF720121062000F072FA03461A46054B1A70054800F09DFA002000F0ACFA00BF80BD42
:40110000C081FF1FC181FF1FD112000080B582B000AF414B1B781846FFF7EAFD3F4B1B781846FFF7E5FD3E4B1B78FF2B05D1FFF7EBFE03461A463A4B1A70394B1878384B00
:401140001A7806230621FFF70DFF354B1B78354A92B245F6A0311846FFF744FF2E4B1A782F4B1B7819461046FFF760FE2E4B1B78FF2B05D1FFF7C8FE03461A462A4B1A7081
:40118000294B1878284B1A7807230621FFF7EAFE254B1B78234A91B2244A92B21846FFF721FF1E4B1A78204B1B7819461046FFF73DFE194B1B7801211846FFF753FD174B20
:4011C0001B7801211846FFF74DFD00F099FE0346FB71174A164B1B78DBB243F02003DBB21370FB79184600F08FFE124A114B1B78DBB243F00103DBB213700E4A0D4B1B7867
:40120000DBB243F00203DBB213700B4B01221A6000BF0837BD4680BDC081FF1FC181FF1FE880FF1FC481FF1FE980FF1F8882FF1F9A6400407964004080E200E080B500AFD0
:40124000084B1B68002B04D1FFF738FF054B01221A6000F043F8FFF759FF034B1B7800BF80BD00BFBC81FF1F6D64004080B500AF00F0E8F800BF80BD80B483B000AF0346EE
:40128000FB80FB88C3F10203074A32F913309AB2064B1B881BB29BB2D31A9BB21BB218460C37BD4680BC70478882FF1F9282FF1F80B582B000AF0346FB80B7F90630184648
:4012C00000F010F9034618460837BD4680BD00BF80B400AF00BFBD4680BC704780B500AF064B1B78002B04D100F00AF8034B01221A7000F01BF800BF80BD00BFCA81FF1F9C
:4013000080B500AF074A074B1B78DBB243F00603DBB213700C2000F06BF8034B00221A8000BF80BD015900409882FF1F80B582B000AF00F0E5FD0346FB71254A244B1B7855
:40134000DBB243F00103DBB21370224A214B1B78DBB243F00103DBB213701F4B1B78BB71BB7943F00203BB71BB7943F00103BB71194ABB791370194B18221A70184A184BFB
:401380001B78DBB243F04003DBB21370144A144B1B78DBB223F00303DBB21370114BC8221A70114B02221A70104A104B1B78DBB243F00803DBB213700A20FFF74DFEFB79A5
:4013C000184600F0A1FD00BF0837BD4680BD00BFAB430040BB4300400359004006590040055900400059004014460040275B004080B584B000AF0346FB71FB790A2B07D07D
:401400000C2B02D0082B06D008E0C223FB730BE08223FB7308E04223FB7305E0C223FB730020FFF70DFE00BF054AFB7B1370FB79184600F017F800BF1037BD4680BD00BF70
:401440000259004080B400AF054A054B1B78DBB243F00103DBB2137000BFBD4680BC70470059004080B584B000AF0346FB71FB790A2B08D00C2B02D0082B08D00BE04FF40A
:401480008053FB600DE04FF48063FB6009E04FF48073FB6005E00023FB600020FFF7D0FD00BF0C4B00221A80FB6842F2107202FB03F303F6C413084A82FB0312D212DB1768
:4014C000D31A064A1360064B00221A8000BF1037BD4680BD9082FF1FAD8BDB689482FF1F9282FF1F90B585B000AF0346FB801A4B1B881BB2002B09D0174B1B881BB21A46E0
:4015000013469B0013445B00FB6002E0134B1B68FB60134B1B881BB2FA889BB2D31A9BB2FB80B7F90630184601F0C6F903460D49184601F015FA03461C46F86801F0BCF998
:4015400003461946204601F0BFFA0346BB60BB6818461437BD4690BD9082FF1F9482FF1F9882FF1F0000204190B585B002AF0446084611461A462346FB710346BB710B4621
:40158000BB8013467B80104B01221A700E4B1878BA79F97900230193002300930123FFF763FC094B1B787A88B9881846FFF702FC054B1B7802211846FFF7CAFB024B1B78A5
:4015C00018460C37BD4690BDEA80FF1F90B585B002AF0446084611461A462346FB710346BB710B46BB8013467B80104B00221A700E4B1878BA79F9790023019300230093CC
:401600000023FFF731FC094B1B787A88B9881846FFF7D0FB054B1B7802211846FFF798FB024B1B7818460C37BD4690BDEB80FF1F80B485B000AF7860054B1B68FB60FB6853
:4016400040337A681A6000BF1437BD4680BC704708ED00E080B483B000AF0346FB71054AFB795B01DBB2137000BF0C37BD4680BC704700BF00E400E080B485B000AF0346F0
:40168000FB710A4B1B78DBB223F00103FB730749FB7903F00103DAB2FB7B1343DBB20B7000BF1437BD4680BC704700BF2051004080B485B000AF0346FB710B4B1B78DBB2F6
:4016C00023F00403FB730849FB799B00DBB203F00403DAB2FB7B1343DBB20B7000BF1437BD4680BC704700BF2051004080B500AF064B1B78002B04D100F00AF8034B012280
:401700001A7000F025F800BF80BD00BFCB81FF1F80B400AF094B72221A70094B20221A70084B06221A70084B47221A70074B00221A7000BFBD4680BC704700BF8064004097
:401740008864004020640040306400408764004080B582B000AF00F0D3FB0346FB71114A104B1B78DBB243F02003DBB213700E4A0D4B1B78DBB243F01003DBB213700B4A3A
:401780000A4B1B78DBB243F01003DBB2137000F06DF8FB79184600F0B7FB00BF0837BD4680BD00BF90640040986400409764004080B483B000AF0023FB710C4B1B78BB7132
:4017C000BB7903F02003002B09D0094B1B78FB71BB7903F01E03002B01D00023FB71FB7918460C37BD4680BC704700BF686400404864004080B483B000AF0346FB7100BF29
:40180000074B1B78DBB203F00403002BF8D1054AFB79137000BF0C37BD4680BC704700BF676400404364004080B584B000AF78600023FB810C4B1B78002B10D009E0FB8968
:401840007A6813441B781846FFF7D4FFFB890133FB81FB897A6813441B78002BEFD100BF1037BD4680BD00BFCB81FF1F80B400AF094A094B1B78DBB243F00403DBB21370A3
:40188000064A064B1B78DBB243F00403DBB2137000BFBD4680BC7047A2430040B243004080B500AF064B1B78002B04D100F00AF8034B01221A7000F025F800BF80BD00BF91
:4018C000CD81FF1F80B400AF094B72221A70094B20221A70084B06221A70084B47221A70074B00221A7000BFBD4680BC704700BF8A650040896500402C6400403C6400403D
:401900008765004080B582B000AF00F0F9FA0346FB71114A104B1B78DBB243F02003DBB213700E4A0D4B1B78DBB243F01003DBB213700B4A0A4B1B78DBB243F01003DBB2CE
:40194000137000F04BF8FB79184600F0DDFA00BF0837BD4680BD00BF9A650040996500409765004080B483B000AF0346FB7100BF074B1B78DBB203F00403002BF8D1054A29
:40198000FB79137000BF0C37BD4680BC704700BF676500404765004080B584B000AF78600023FB810C4B1B78002B10D009E0FB897A6813441B781846FFF7D4FFFB890133E5
:4019C000FB81FB897A6813441B78002BEFD100BF1037BD4680BD00BFCD81FF1F80B400AF094A094B1B78DBB243F00203DBB21370064A064B1B78DBB243F00203DBB21370C4
:401A000000BFBD4680BC7047A2430040B243004080B485B000AF0346FB710B4B1B78DBB223F01003FB730849FB791B01DBB203F01003DAB2FB7B1343DBB20B7000BF1437E2
:401A4000BD4680BC704700BF2051004080B582B000AF786000F03CF8786800F009F8072000F018F800F028F800BF0837BD4680BD80B485B000AF7860054B1B68FB60FB6827
:401A800048337A681A6000BF1437BD4680BC704708ED00E080B483B000AF0346FB71054AFB795B01DBB2137000BF0C37BD4680BC704700BF02E400E080B400AF034B0422AC
:401AC0001A6000BFBD4680BC704700BF00E100E080B400AF034B04221A6000BFBD4680BC704700BF80E100E080B500AF064B1B78002B04D100F00AF8034B01221A7000F00C
:401B000053F800BF80BD00BFCF81FF1F80B582B000AF224B1B78DBB223F03F03FB711F4AFB7943F00903DBB213701D4A1C4B1B78DBB243F00103DBB213701A4A194B1B7811
:401B4000DBB243F00103DBB2137040F69F7000F03BF840F69F7000F055F8C72000F062F840F28F1000F06EF8002000F07BF800F0C7F90346BB710B4A0A4B1B78DBB243F0AA
:401B80001003DBB21370BB79184600F0BDF900F02BF800BF0837BD4680BD00BF75650040946500409565004080B400AF054A054B1B78DBB263F07F03DBB2137000BFBD46E4
:401BC00080BC70477565004080B483B000AF0346FB80044AFB88138000BF0C37BD4680BC704700BF086A004080B500AF01E000F055F800F047F8034603F01003002BF6D1BF
:401C000000BF80BD80B483B000AF0346FB80044AFB88138000BF0C37BD4680BC704700BF886A004080B483B000AF0346FB80044AFB88138000BF0C37BD4680BC704700BF8C
:401C4000486A004080B483B000AF0346FB80044AFB88138000BF0C37BD4680BC704700BF686A004080B483B000AF0346FB71044AFB79137000BF0C37BD4680BC704700BFA4
:401C80008565004080B400AF034B1B78DBB21846BD4680BC704700BF6565004080B400AF034B1B889BB21846BD4680BC704700BFA86A004080B500AF264A264B1B78DBB221
:401CC00003F00103DBB21370234A234B1B78DBB223F00303DBB213701E4A1E4B1B78DBB243F00403DBB213701C4A1C4B1B78DBB223F03003DBB21370184A184B1B78DBB256
:401D000043F03003DBB21370144A144B1B78DBB223F00F03DBB21370104A104B1B78DBB243F00F03DBB213700D4A0D4B1B78DBB243F00103DBB213704EF65F2000F058F8D8
:401D40004EF65F2000F066F8002000F041F800BF80BD00BF004F0040024F00400B4F0040014F004080B400AF0D4A0D4B1B78DBB243F00103DBB213700A4A0A4B1B78DBB242
:401D800043F00103DBB21370074A074B1B78DBB243F00103DBB2137000BFBD4680BC7047A3430040B3430040004F004080B500AF064B1B78002B04D1FFF77CFF034B012288
:401DC0001A70FFF7CFFF00BF80BD00BFD081FF1F80B483B000AF0346FB71044AFB79137000BF0C37BD4680BC704700BF034F004080B485B000AF0346FB80FB88FB81044AE9
:401E0000FB89138000BF1437BD4680BC704700BF044F004080B483B000AF0346FB80044AFB88138000BF0C37BD4680BC704700BF064F004080B483B000AF0346FB71044A96
:401E4000FB79137000BF0C37BD4680BC704700BF7164004080B582B000AF786000F03CF8786800F009F8072000F018F800F028F800BF0837BD4680BD80B485B000AF786057
:401E8000054B1B68FB60FB6844337A681A6000BF1437BD4680BC704708ED00E080B483B000AF0346FB71054AFB795B01DBB2137000BF0C37BD4680BC704700BF01E400E073
:401EC00080B400AF034B02221A6000BFBD4680BC704700BF00E100E080B400AF034B02221A6000BFBD4680BC704700BF80E100E00230800803D000BF01380046FCD170470B
:401F0000EFF3108072B6704780F31088704700BF81F0004102E000BF83F0004330B54FEA41044FEA430594EA050F08BF90EA020F1FBF54EA000C55EA020C7FEA645C7FEAF7
:401F4000655C00F0E2804FEA5454D4EB5555B8BF6D420CDD2C4480EA020281EA030382EA000083EA010180EA020281EA0303362D88BF30BD11F0004F4FEA01314FF4801CBB
:401F80004CEA113102D0404261EB410113F0004F4FEA03334CEA133302D0524263EB430394EA050F00F0A780A4F10104D5F1200E0DDB02FA0EFC22FA05F2801841F100018D
:401FC00003FA0EF2801843FA05F359410EE0A5F120050EF1200E012A03FA0EFC28BF4CF0020C43FA05F3C01851EBE37101F0004507D54FF0000EDCF1000C7EEB00006EEBAD
:402000000101B1F5801F1BD3B1F5001F0CD349085FEA30004FEA3C0C04F101044FEA445212F5800F80F09A80BCF1004F08BF5FEA500C50F1000041EB045141EA050130BD4B
:402040005FEA4C0C404141EB010111F4801FA4F10104E9D191F0000F04BF01460020B1FA81F308BF2033A3F10B03B3F120020CDA0C3208DD02F1140CC2F10C0201FA0CF0E9
:4020800021FA02F10CE002F11402D8BFC2F1200C01FA02F120FA0CFCDCBF41EA0C019040E41AA2BF01EB0451294330BD6FEA04041F3C1CDA0C340EDC04F11404C4F120023B
:4020C00020FA04F001FA02F340EA030021FA04F345EA030130BDC4F10C04C4F1200220FA02F001FA04F340EA0300294630BD21FA04F0294630BD94F0000F83F4801306BF93
:4021000081F480110134013D4EE77FEA645C18BF7FEA655C29D094EA050F08BF90EA020F05D054EA000C04BF1946104630BD91EA030F1EBF0021002030BD5FEA545C05D1FF
:402140004000494128BF41F0004130BD14F580043CBF01F5801130BD01F0004545F0FE4141F470014FF0000030BD7FEA645C1ABF194610467FEA655C1CBF0B46024650EA48
:40218000013406BF52EA033591EA030F41F4002130BD00BF90F0000F04BF0021704730B54FF4806404F132044FF000054FF0000150E700BF90F0000F04BF0021704730B538
:4021C0004FF4806404F1320410F0004548BF40424FF000013EE700BF42004FEAE2014FEA31014FEA02701FBF12F07F4393F07F4F81F06051704792F0000F14BF93F07F4FA6
:40220000704730B54FF4607401F0004521F0004120E700BF50EA010208BF704730B54FF000050AE050EA010208BF704730B511F0004502D5404261EB41014FF4806404F1E6
:4022400032045FEA915C3FF4DCAE4FF003025FEADC0C18BF03325FEADC0C18BF033202EBDC02C2F1200300FA03FC20FA02F001FA03FE40EA0E0021FA02F11444C1E600BFD1
:4022800070B54FF0FF0C4CF4E06C1CEA11541DBF1CEA135594EA0C0F95EA0C0F00F0DEF82C4481EA030621EA4C5123EA4C5350EA013518BF52EA033541F4801143F48013F2
:4022C00038D0A0FB02CE4FF00005E1FB02E506F00042E0FB03E54FF00006E1FB03569CF0000F18BF4EF0010EA4F1FF04B6F5007F64F5407404D25FEA4E0E6D4146EB0606FB
:4023000042EAC62141EA55514FEAC52040EA5E504FEACE2EB4F1FD0C88BFBCF5E06F1ED8BEF1004F08BF5FEA500E50F1000041EB045170BD06F0004646EA010140EA0200AE
:4023400081EA0301B4EB5C04C2BFD4EB0C0541EA045170BD41F480114FF0000E013C00F3AB8014F1360FDEBF002001F0004170BDC4F10004203C35DA0C341BDC04F11404B5
:40238000C4F1200500FA05F320FA04F001FA05F240EA020001F0004221F0004110EBD37021FA04F642EB06015EEA430E08BF20EAD37070BDC4F10C04C4F1200500FA04F3AF
:4023C00020FA05F001FA04F240EA020001F0004110EBD37041F100015EEA430E08BF20EAD37070BDC4F1200500FA05F24EEA020E20FA04F301FA05F243EA020321FA04F0DD
:4024000001F0004121FA04F220EA020000EBD3705EEA430E08BF20EAD37070BD94F0000F0FD101F00046400041EB010111F4801F08BF013CF7D041EA060195F0000F18BF21
:40244000704703F00046520043EB030313F4801F08BF013DF7D043EA0603704794EA0C0F0CEA135518BF95EA0C0F0CD050EA410618BF52EA4306D1D181EA030101F0004123
:402480004FF0000070BD50EA410606BF1046194652EA430619D094EA0C0F02D150EA013613D195EA0C0F05D152EA03361CBF104619460AD181EA030101F0004141F0FE4125
:4024C00041F470014FF0000070BD41F0FE4141F4780170BD70B54FF0FF0C4CF4E06C1CEA11541DBF1CEA135594EA0C0F95EA0C0F00F0A7F8A4EB050481EA030E52EA033585
:402500004FEA013100F088804FEA03334FF0805545EA131343EA12634FEA022245EA111545EA10654FEA00260EF000419D4208BF964244F1FD0404F5407402D25B084FEAF9
:402540003202B61A65EB03055B084FEA32024FF480104FF4002CB6EB020E75EB030E22BFB61A754640EA0C005B084FEA3202B6EB020E75EB030E22BFB61A754640EA5C0045
:402580005B084FEA3202B6EB020E75EB030E22BFB61A754640EA9C005B084FEA3202B6EB020E75EB030E22BFB61A754640EADC0055EA060E18D04FEA051545EA16754FEA12
:4025C00006164FEAC30343EA52734FEAC2025FEA1C1CC0D111F4801F0BD141EA00014FF000004FF0004CB6E711F4801F04BF01430020B4F1FD0C88BFBCF5E06F3FF6AFAE5A
:40260000B5EB030C04BFB6EB020C5FEA500C50F1000041EB045170BD0EF0004E4EEA113114EB5C04C2BFD4EB0C0541EA045170BD41F480114FF0000E013C90E645EA060EB9
:402640008DE60CEA135594EA0C0F08BF95EA0C0F3FF43BAF94EA0C0F0AD150EA01347FF434AF95EA0C0F7FF425AF104619462CE795EA0C0F06D152EA03353FF4FDAE104677
:40268000194622E750EA410618BF52EA43067FF4C5AE50EA41047FF40DAF52EA43057FF4EBAE12E74FEA4102B2F1E04324BFB3F5001CDCF1FE5C0DD901F0004C4FEAC0028A
:4026C0004CEA5070B2F1004F40EB830008BF20F00100704711F0804F21D113F13872BCBF01F00040704741F480114FEA5252C2F11802C2F1200C10FA0CF320FA02F018BFA7
:4027000040F001004FEAC1234FEAD32303FA0CFC40EA0C0023FA02F34FEA4303CCE77FEA625307D150EA01331EBF4FF0FE4040F44000704701F0004040F0FE4040F40000E1
:40274000704700BF80F0004002E000BF81F0004142001FBF5FEA410392EA030F7FEA226C7FEA236C6AD04FEA1262D2EB1363C1BFD218414048404140B8BF5B42192B88BF09
:40278000704710F0004F40F4000020F07F4018BF404211F0004F41F4000121F07F4118BF494292EA030F3FD0A2F1010241FA03FC10EB0C00C3F1200301FA03F100F0004391
:4027C00002D5494260EB4000B0F5000F13D3B0F1807F06D340084FEA310102F10102FE2A51D2B1F1004F40EBC25008BF20F0010040EA03007047490040EB000010F4000F74
:40280000A2F10102EDD1B0FA80FCACF1080CB2EB0C0200FA0CF0AABF00EBC25052421843BCBFD0401843704792F0000F81F4000106BF80F400000132013BB5E74FEA410312
:402840007FEA226C18BF7FEA236C21D092EA030F04D092F0000F08BF0846704790EA010F1CBF0020704712F07F4F04D1400028BF40F00040704712F100723CBF00F500004E
:40288000704700F0004343F0FE4040F4000070477FEA226216BF08467FEA23630146420206BF5FEA412390EA010F40F4800070474FF0000304E000BF10F0004348BF404230
:4028C0005FEA000C08BF704743F0964301464FF000001CE050EA010208BF70474FF000030AE000BF50EA010208BF704711F0004302D5404261EB41015FEA010C02BF84460A
:402900000146002043F0B64308BFA3F18053A3F50003BCFA8CF2083AA3EBC25310DB01FA02FC634400FA02FCC2F12002BCF1004F20FA02F243EB020008BF20F00100704701
:4029400002F1200201FA02FCC2F1200250EA4C0021FA02F243EB020008BF20EADC7070474FF0FF0C1CEAD0521EBF1CEAD15392EA0C0F93EA0C0F6FD01A4480EA010C4002DD
:4029800018BF5FEA41211ED04FF0006343EA501043EA5111A0FB01310CF00040B1F5000F3EBF490041EAD3715B0040EA010062F17F02FD2A1DD8B3F1004F40EBC25008BF09
:4029C00020F00100704790F0000F0CF0004C08BF49024CEA502040EA51207F3AC2BFD2F1FF0340EAC250704740F400004FF00003013A5DDC12F1190FDCBF00F0004070475C
:402A0000C2F10002410021FA02F1C2F1200200FA02FC5FEA310040F1000053EA4C0308BF20EADC70704792F0000F00F0004C02BF400010F4000F013AF9D040EA0C0093F01C
:402A4000000F01F0004C02BF490011F4000F013BF9D041EA0C018FE70CEAD15392EA0C0F18BF93EA0C0F0AD030F0004C18BF31F0004CD8D180EA010000F00040704790F014
:402A8000000F17BF90F0004F084691F0000F91F0004F14D092EA0C0F01D142020FD193EA0C0F03D14B0218BF084608D180EA010000F0004040F0FE4040F40000704740F068
:402AC000FE4040F4400070474FF0FF0C1CEAD0521EBF1CEAD15392EA0C0F93EA0C0F69D0A2EB030280EA010C49024FEA402037D04FF0805343EA111143EA10130CF00040AB
:402B00008B4238BF5B0042F17D024FF4000C8B4224BF5B1A40EA0C00B3EB510F24BFA3EB510340EA5C00B3EB910F24BFA3EB910340EA9C00B3EBD10F24BFA3EBD10340EADB
:402B4000DC001B0118BF5FEA1C1CE0D1FD2A3FF650AF8B4240EBC25008BF20F0010070470CF0004C4CEA50207F32C2BFD2F1FF0340EAC250704740F400004FF00003013AD7
:402B800037E792F0000F00F0004C02BF400010F4000F013AF9D040EA0C0093F0000F01F0004C02BF490011F4000F013BF9D041EA0C0195E70CEAD15392EA0C0F08D1420268
:402BC0007FF47DAF93EA0C0F7FF470AF084676E793EA0C0F04D14B023FF44CAF08466EE730F0004C18BF31F0004CCAD130F000427FF45CAF31F000437FF43CAF5FE700BFE4
:402C00004FF0FF3C06E000BF4FF0010C02E000BF4FF0010C4DF804CD4FEA40024FEA41037FEA226C18BF7FEA236C11D001B052EA530C18BF90EA010F58BFB2EB030088BFDC
:402C4000C81738BF6FEAE17018BF40F0010070477FEA226C02D15FEA402C05D17FEA236CE4D15FEA412CE1D05DF8040B704700BF844608466146FFE70FB5FFF7C9FF002883
:402C800048BF10F1000F0FBD4DF808EDFFF7F4FF0CBF012000205DF808FB00BF4DF808EDFFF7EAFF34BF012000205DF808FB00BF4DF808EDFFF7E0FF94BF012000205DF88F
:402CC00008FB00BF4DF808EDFFF7D2FF94BF012000205DF808FB00BF4DF808EDFFF7C8FF34BF012000205DF808FB00BF014B1868704700BF4C81FF1F0E4B70B51E460E4CBB
:402D00000025E41AA410A54204D056F8253098470135F8E703F0DEFD084B094C1E46E41AA4100025A54204D056F8253098470135F8E770BDE0680000E0680000E068000062
:402D4000E868000010B5431E0A44914204D011F8014B03F8014FF8E710BD03460244934202D003F8011BFAE770472DE9F04788B0149F002B1E461299B8BF03F1004327F080
:402D80002007B6BF1E4600232D23462F1446109DDDF84CA00B7003D0452F03D1013501E0032300E0022307AA049206AA03928DE828042246334601F04FFB472F804602D133
:402DC000119BDB0728D5462F08EB050911D198F80030302B0AD1002200232046314603F0C7FA18B9C5F10105CAF80050DAF800309944002200232046314603F0B9FA08B91D
:402E0000302202E0CDF81C9006E0079B994503D9591C07911A70F8E74046079B159AC8EB0303136008B0BDE8F087034673B50029B8BF494203F8022BB4BF2D222B22092959
:402E400042701ADD0DF1070216460A2591FBF5F405FB1411092C01F1300102F8011D2146F4DC3031541E02F8011CB4421A460AD214F8012B03F8012BF7E71A463024214464
:402E800002F8024B5970101A02B070BD2DE9F04F91B00C46DDF8688016461F46054602F091FB03681846099300F002FC00230E93D8F800300A90073323F0070303F10802C4
:402EC00094F81890D4F800B0C8F80020D3E90023C4E91223D4F84CA0D4F848802AF000430B934FF0FF32A74B40460B9903F072FAA0B94FF0FF32A34B40460B9903F04CFA35
:402F000060B9002200234046514603F03BFA10B12D2384F843309C4B9C4A0AE0424653464046514603F056FA002800F09281984B984AB9F1470F8CBF90469846032323611D
:402F40002BF0040323604FF0000A3DE0B9F1670F00F08A81B9F1470F00F0868123600193636800210DF13302059002920093424653460691CDF81090CDF80CE02846FFF710
:402F8000F4FE09F0DF03472B804600F08481B9F1650F0D9900F28D8101394A4604F150000D91FFF742FF0E9A82468318012A236100F37C812268D10700F178819DF8333081
:402FC00013B12D2384F84330009733460FAA2146284600F09FF9013002D14FF0FF3096E123685A0501D4236965E0B9F1650F40F2D580D4E912010022002303F0B9F978B3A5
:403000000123654A31462846B8470130E5D00E9B0D9A9A420BDB2368D80708D423689B0740F111814FF0000804F1190906E10A9B099A31462846B8470130CED04FF0000824
:4030400004F11A090E9B013B9845E7DA01234A4631462846B8470130BFD008F10108F1E70D9B002B29DC01234B4A31462846B8470130B2D00D9B23B90E9B13B92368D907F7
:40308000CCD50A9B099A31462846B8470130A4D04FF0000904F11A0A0D9B5B42994509DA0123524631462846B847013095D009F10109F1E70E9B4246A7E00E9AA36D9A42D9
:4030C000A8BF1A46002A914606DC4FF0000A29EAE97904F11A0B11E01346314642462846B8470130F1D178E701235A4631462846B84701303FF471AF0AF1010AA36DC9EB50
:4031000003029245F0DB08EB03090D9A0E9B9A420FDB2368DA070CD40E9B0D9A9844C9EB08089B1A9845A8BF9846B8F1000F08DC0FE00A9B099A31462846B8470130EBD11C
:403140004BE743464A4631462846B84701303FF444AF4FF0000928EAE87804F11A0A09E00123524631462846B84701303FF435AF09F101090D9A0E9B9B1AC8EB0303994585
:40318000EEDB4BE7FFFFEF7F24670000286700002C67000030670000346700000E9A012A01DCDB0738D50123424631462846B84701303FF412AF0A9B099A31462846B84749
:4031C00001303FF40AAFD4E912010022002303F0CFF820B14FF0000804F11A090EE00E9B08F10102013B19E001234A4631462846B84701303FF4F1AE08F101080E9B013B69
:403200009845F1DB534604F1500231462846B84701307FF403AFE0E64246012331462846B8470130EED1D8E601234A4631462846B84701303FF4D1AE08F10108E3680F9A56
:403240009B1A9845F0DBE0680F9B9842B8BF18465DE062680EA8531C0DF1340E4BF480637FF474AE062201E012B90122626075E6002106910DF133018DE80C002360059096
:403280004246CDF81090CDF80CE0029153462846FFF76BFD80460D9BD81C02DB626893421DDDA9F102095FFA89F970E60133236184E6B9F1660F14D10029636807DD21614A
:4032C00013B92268D2071DD501330B4419E013B92268D00701D5023313E0012311E04FF067090D9B0E9A934205DB22682361D10708D5013305E0002BD4BFC3F102030123C6
:40330000134423610D9B4FF0000AA36556E611B0BDE8F08F2DE9F04791461F460A698B6806469342B8BF1346C9F8003091F843200C46DDF8208012B10133C9F800302368A1
:40334000990642BFD9F800300233C9F80030256815F0060510D104F1190A07E00123524639463046C04701301AD00135E368D9F800209B1A9D42F1DB94F8433022680033A8
:4033800018BF012392060FD5E118302081F843005A1C94F845102244023382F8431003E04FF0FF30BDE8F08704F1430239463046C0470130F4D02268D9F80050E36802F052
:4033C0000602042A08BF5D1B2269A3680CBF25EAE57500259342C4BF9B1AED184FF000091A344D4509D00123224639463046C0470130D5D009F10109F3E70020BDE8F087DE
:403400002DE9F04317460A7E85B06E2A984606460C460C9B01F1430E00F0AE8011D8632A22D009D8002A00F0BB80582A40F0CA8081F84520834955E0642A1ED0692A1CD099
:40344000C0E0732A00F0B08009D86F2A2ED0702A40F0B8800A6842F020020A603EE0752A24D0782A3AD0ADE01A6801F14205111D1960136884F84230A8E021681A6811F0FC
:40348000800F02D0111D196008E011F0400F02F10401196002D0B2F9003000E01368002B3CDA2D225B4284F8432037E021681A6811F0800F02D0111D196007E011F0400FE5
:4034C00002F10401196001D0138800E01368227E5C496F2A14BF0A2208221BE078225A4984F845202268186812F0800F00F104051D6003D1550601D5038800E00368D007B0
:4035000044BF42F0200222601BB9226822F0200222601022002084F8430001E049490A226568002DA56008DB206820F0040020602BB9002D7DD175460CE0002B79D07546BB
:40354000B3FBF2F002FB1033CB5C05F8013D03460028F5D1082A0BD12368DA0708D5236962689A42DEBF302305F8013C05F1FF35C5EB0E0323612EE008681A6810F0800F31
:40358000496903D0101D1860136808E010F0400F02F104001860136801D0198000E0196000232361754616E01A68111D1960156800216268284602F011F808B1401B60605C
:4035C000636804E004F1420584F8422001232361002384F84330CDF800803B4603AA21463046FFF797FE013002D14FF0FF3026E023692A4639463046C0470130F5D023687C
:403600009B0710D5002504F1190907E001234A4639463046C0470130E7D00135E368039A9B1A9D42F2DBE068039B9842B8BF184605E00B7804F1420584F842308AE705B07C
:40364000BDE8F08336670000476700000CB430B5164B0C1E9DB01D6804DA8B232B604FF0FF301EE04FF40273ADF814300CBF234604F1FF33049307934FF6FF730290069056
:40368000ADF81630209A21AB02A92846019302F0AFFC431CBCBF8B232B6014B1029B00221A701DB0BDE8304002B070474C81FF1F034613F8012B002AFBD1181A0138704760
:4036C0002DE9F0410F46904602F05CFA04460D46B8F1000F11D0C7F30A53C3F16B03002B0BDD1B0503F17F55002405F5401522462B46FEF7C5FDBDE8F08120462946BDE813
:40370000F0810000000000002DE9F04F82460C469DB00023139218934FF000084FF000091791179B1A780D2A05D8092A13D2002A00F0AD8112E02B2A04D02D2A04D0202A6A
:403740000CD108E0002200E001220C925A1C17925B782BB99BE101331793E2E700230C93179D2B78302B5CD16B78582B01D0782B4CD10C9BA84A019318AB009317A919AB29
:40378000504601F04CFC10F00706044600F08585062E05D10135002317950C9300F07DBD189A3AB135211AA802F0D3FA1899504601F057FF062E22D8DFE806F0040D0818F3
:4037C0001D0D04004FF00009C84618E0DDF86880DDF86C9013E01B9B199A23F4801302F23342DDF8688043EA025908E0DFF82C924FF0000803E06FF000494FF0FF3821071E
:4038000040F14B8549F0004900F047BD179B5A1C17925B78302BF9D0002B00F03E85012300E000230593179B0A22069300239B4602930493179D2E78A6F13003D9B2092924
:4038400011D8BBF1080FD5BF0499029902FB013302FB013305F10105D4BF049302930BF1010B1795E6E7504601F0ACFE0768504601F0A8FE0068FFF71BFF394602462846B8
:4038800002F0BEFC074628B1002033465D46024601465AE0504601F095FE0068FFF708FF179B1A1817921B5CBBF1000F45D15846302B05D1179B01305A1C17925B78F7E75B
:4038C000A3F13102082A46D8179A0692024600200546303B00F1010129D00A44294605EB000C0A2661450FD0013101F1FF3EBEF1080F03DC049F77430497F3E71029DEBF42
:40390000029F77430297EDE72844082800F1010505DC04980A2101FB0033049306E0102DDFBF02980A2101FB003302930021179B581C17905B78084602E05D4638463A46E2
:40394000A3F130010929C4D90121652B01D0452B4FD16DB904E0652B40F0AD840022012128B9059B002B00F09280054600E00025179C631C179363782B2B06D02D2B02D056
:403980000026039606E0012300E000230393A31C1793A378A3F13006092E29D8302B04D1179B5E1C17965B78F8E7A3F13106082E1FD8A3F1300E179B1F46179B5E1C1796AA
:4039C0005B78A3F1300CBCF1090F05D80A2606FB0E3EAEF1300EF0E7F61B082E44F61F6602DC7645A8BF7646039F1FB1764201E017940026002D52D1002840F04E84059A9A
:403A0000002A40F04A84002941D14E2B20D007DC492B0AD03BE000BF6C6700000000F07F692B02D06E2B13D031E0AA4917A801F027FD60B3179BA849013B17A8179301F067
:403A40001FFD10B9179B01331793DFF8A8921AE0A24917A801F014FDC8B1179B1B78282B0FD11AAA9E4917A801F01DFD052808D11B9BDDF8688043F0FF4949F4E00900F0AA
:403A80000CBCDFF874924FF0000800F006BC139B1794002B00F00C8400230C93FFE32C46BBF1000F08BFAB460498102DA8BF1024B71AFEF76FFB092C8046894613DD894BA9
:403AC00003EBC40353E91223FEF7DAFB804602988946FEF75FFB02460B4640464946FEF71DFA804689460F2D33DC002F00F0D58322DD162F07DC7B4D424605EBC7014B4687
:403B0000D1E9000113E0C5F125039F4221DC754CC5F10F0504EBC5017D1B4246D1E900014B4604EBC504FEF7ABFBD4E90023FEF7A7FB80468946B0E317F1160F09DB694DB6
:403B40004046A5EBC703D3E900234946FEF7C2FCEFE72C1B3C44002C5DDD14F00F010AD0604B424603EBC101D1E900014B46FEF787FB8046894634F00F0400F0C180B4F507
:403B80009A7F0FDD4FF0000BCDF808B0CDF814B0CDF810B02223CAF80030DFF858914FF0000889E14046494600234F4E24110293012C0CDDE20704D5D6E90023FEF760FBDA
:403BC0000123029A6410013202920836F0E70BB180468946444B029AA9F1547903EBC201D1E9000142464B46FEF74AFB21F0004389460A461B0D3D491B058B428046C1D8A6
:403C0000A1F580118B4286BFDFF8F0904FF0FF3802F1547974E073D0644214F00F020AD0304B404603EBC2034946D3E90023FEF751FC80468946241162D01F2C08DD4FF0C3
:403C4000000BCDF808B0CDF814B0CDF810B02CE14046494614F0100F0CBF00236A23244E03930023002C09DDE20704D5D6E90023FEF706FB012364100836F3E70BB18046E5
:403C80008946039BEBB1C9F30A53C3F16B03002B494616DD1F2B0EDD342BDEBF203B4FF0FF3202FA03F34FF00008CCBF4FF05C7903EA010905E04FF0FF3202FA03F303EA14
:403CC0000808002200234046494602F051FB0028B5D117E029670000AB6700003167000058670000C0670000986800000000A07C806700000000F07F0000F8FFFFFFEF7F82
:403D000000230393049B5A46009306992B46504601F0F9FC059000283FF434AF002FC7F10003A8BF00230D934FF0000B27EAE7731293CDF808B0059B5046596801F05CFC6E
:403D4000049000283FF426AF059B0C301A6903F10C0102329200FEF7F5FF1AAB019319AB009342464B465046CDE9088901F07BFF189000283FF40EAF0121504601F04EFDAB
:403D8000029000283FF406AF199B0399002BACBF0D9A129A1A9CACBFD618D21AA3EB01032344B14903F1FF33ACBF129A0D9E8B42C4F1360480F28580C91A1F29C8BFAB4D75
:403DC0004FF00107D4BF07FA01F3ED1AA4EB0104D9BF0793002507FA05F507973719039BBE4214441C443346A8BF3B46A342A8BF2346002BC2BFFF1AE41AF61A0D9B002B07
:403E000063D1002F7ADC129B002B40F08180002C00F38880002E00F38F80049A1899504601F051FE834600283FF4B4AEC3680024C4600299069301F02AFEA04280F28B809F
:403E4000069B002B40F00282B8F1000F40F0FE81C9F31303002B40F0F98129F000431B0D1B05B3F1D66F40F2F181DBF81430002B6CD059460122504601F0B8FD02998346A3
:403E800001F005FE002840F3E18129F00043039A1B0D1B05002A00F08D80B3F1D66F00F38980B3F15C7F00F3D38122234FF000084FF00009CAF80030059B002B40F0D98123
:403EC000EBE101230025079388E71A460299504601F03EFD029000283FF45CAE0146189A504601F0A4FC069000283FF453AE1899504601F0B6FB069B189382E73A4618990F
:403F0000504601F073FD189000287FF47CAF41E6129A0499504601F01BFD049000287FF476AF37E622460499504601F05FFD049000287FF46FAF2DE632460299504601F0BA
:403F400055FD029000287FF468AF23E6DBF81030012B8EDC7AE161D1069AC9F3130322B343494A468B422ED1039B414663B1414B1340B3F1D46F07D81B0DC3F16B034FF0D6
:403F8000FF3000FA03F301E04FF0FF338B421AD139498A4202D101333FF4FCAD354B4FF00008134003F5801950E163B9B8F1000F09D16AE7A3F580136FEA13594FF0FF3866
:403FC0006FEA095942E115B115EA090F02E0079B13EA080F00F03A81069B039A4046494653B1FFF76DFB02460B46DDE90801FDF795FF8046894629E1FFF762FB02460B4693
:40400000DDE90801FDF788FF002200238046894602F0AEF900287FF448AF17E10299584601F06FFE00224FF0804306460F4602F0B3F900283FD0069B13B100260F4F10E02F
:40404000B8F1000F03D1C9F313033BB91AE0B8F1010F03D1B9F1000F3FF427AF084F00260024064D3CE000BF02FCFFFFE2FBFFFFFFFF0F000000F07FFFFFEF7F0000F03FE8
:404080000000F0BF00229A4B3046394602F07AF940B90022974B30463946FEF7F1F804460D4601E0069C934D05F1004314941593DDE9146714E08F4B002230463946FEF77C
:4040C000DFF8069B04460D4623B901F100430E900F9303E002460B46CDE90E23DDE90E6729F000431B0D1B050793079A824B9A422BD1DDE90823A9F1547940464946CDE915
:404100000A2301F03FFD02460B4630463946FEF7B7F842464B46FDF701FF21F000431B0D764A1B05934280460CD9754B0B9A9A4203D10A9B01333FF42DADDFF8C4914FF0A4
:40414000FF3872E001F1547939E0039B3BB3079BB3F1D46F23D85EA3D3E900232046294602F01AF9B8B12946204602F071F9002808BF0120FEF70EF8069B04460D4623B955
:4041800001F100431090119303E002460B46CDE91023DDE91067079A07F1D6639F1ADDE9080101F0EFFC02460B4630463946FEF767F8DDE90823FDF7B1FE80468946039B05
:4041C0009BBB29F000431B0D079A1B059A424E462BD12946204602F013F9FDF7EBFF0B46024629462046FDF797FE069B04460D462BB9B8F1000F02D1C9F313067EB136A386
:40420000D3E900232046294602F0BCF888BB34A3D3E900232046294602F0D2F804E032A3D3E9002302F0AEF818BB1899504601F018FA0499504601F014FA0299504601F0F9
:4042400010FA5946504601F00CFA74E5039B83B12C4B40460B9300230A934946DDE90A23FEF70EF88046894619B910B92223CAF800301899504601F0F4F90499504601F055
:40428000F0F90299504601F0ECF90599504601F0E8F95946504601F0E4F9139B13B1179B139A13600C9B1BB1424609F1004307E042464B4604E000252A460121FFF747BBF6
:4042C000104619461DB0BDE8F08F00BFAFF300800000C0FFFFFFDF419535A094FFFFDF3F35E5AF350000E03F9535A094FFFFCF3F0000F03F0000E03F0000E07FFFFF9F7C53
:40430000FFFFEF7F0000503938B50B4B0A4601461868FFF7F9F902460B4604460D4602F059F820B10020BDE8384001F065BF20462946FEF7B7F938BD4C81FF1F2DE9F74FF4
:4043400003690C6980469C427FDC013C01F114074FEA840E00F1140606EB0E0357F82450019356F824300135B3FBF5F507EB0E09C5B34FF0000A3846B446D34650F8043B92
:404380009AB205FB02A21B0C4FEA124A05FB03A392B2C2EB0B0BBCF800204FEA134A5A441FFA83FBDCF800308145CBEB134303EB224392B242EA03424FEA234B4CF8042B0D
:4043C000DCD256F80E306BB9019B043B9E421A4602D3C8F8104005E01268043B002AF8D1013CF3E7404601F052FB00282BDB304601354FF0000E57F8042B036891B2C1EBF4
:404400000E0E120C99B27144C2EB134303EB214389B24FEA234EB94541EA034340F8043BE9D256F8242006EB840362B9043B9E421A4602D3C8F8104005E01268043B002A16
:40444000F8D1013CF3E7284600E0002003B0BDE8F08F0000000000002DE9F04F456A95B08246219CCDE9022345B9102001F0AEF8CAF82400456085600560C560DAF8243089
:40448000196859B15A68012393404A608B60504601F0E7F8DAF8243000221A60039BA04A002BBDBF01232360039B0023BCBF23F000430393DDF80C80A8BF236028F0004357
:4044C0001B0D1B0593421DD142F20F73209A1360029B43B9934A944BC8F31300002814BF1846104600E09048229B002B00F04685C37813B100F1080300E0C31C229A1360B8
:4045000000F03CBDDDE90245002200232046294601F02EFF074658B1209A01231360229B002B00F01E8581481860013800F026BD12AB019313AB009322462B46504601F0DC
:4045400092FBC8F30A56049056B1C5F3130343F07F51204641F44011A6F2FF3611971DE0139B129E1E4406F23243202B0ADD029A06F21240C3F1400322FA00F008FA03F389
:40458000184304E0C3F12000029B03FA00F0FDF701FE0123A1F1F871013E11930022644BFDF7BAFC58A3D3E90023FDF769FE58A3D3E90023FDF7B2FC044630460D46FDF736
:4045C000F9FD55A3D3E90023FDF75AFE02460B4620462946FDF7A2FC04460D4601F010FF0022834600232046294601F0CBFE58B15846FDF7DFFD02460B462046294601F092
:40460000B7FE08B90BF1FF3BBBF1160F0DD8DDE90223484901EBCB01D1E9000101F0D0FE30B10BF1FF3B002300E00123109300E01090129B9E1B731E079343BFC3F10008BA
:40464000002307934FF00008BBF1000F06DB079BCDF82CB05B440793002705E00023CBEB0808CBF100070B931E9B092B28D8052BC4BF043B1E931E9BC8BF0025A3F102033A
:40468000D8BF0125032B20D8DFE803F0060E0204012302E0012308E000230A931F9B002B1DDD9946059321E000230A931F9B0BEB030909F10103012B0593B8BF012315E04C
:4046C000012500231E930A9501E001230A934FF0FF390022CDF8149012231F9206E04FF001094B46CDF81490CDF87C90DAF8244000226260042101F114029A421CD86268BC
:40470000490001326260F6E761436F63A787D23FB3C8608B288AC63FFB799F501344D33F0000F07FA8670000B1670000356700000000F83FC06700006168504600F05CFF86
:40474000DAF8243020601B680693059B0E2B00F25B81002D00F05881DDE90234BBF1000FCDE90E3430DD9F4A0BF00F034FEA2B1502EBC303E80618CBCDE908340CD5DDE992
:404780000E01994B05F00F05D3E90823FDF7A2FE0324CDE9020100E00224934E6DB1E90708D5DDE90801D6E90023FDF769FDCDE9080101346D100836F0E7DDE90823DDE988
:4047C0000201FDF787FE20E0CBF1000505B3DDE90E01844B05F00F0203EBC203D3E90023FDF74EFDCDE902017F4E2D110023022455B1EA0705D5D6E90023FDF741FD013422
:4048000001236D100836F3E71BB1CDE9020100E00224109BE3B1DDE902560022734B2846314601F0AFFD98B1059B8BB1B9F1000F40F3E6800BF1FF330893314600226C4BE5
:404840002846FDF71DFD0134CDE902014E4602E0059ECDF820B02046FDF7ACFCDDE90223FDF70EFD634B0022FDF758FBA1F1507304460C931D46D6B9DDE9020100225E4B59
:40488000FDF74AFB22460C9BCDE9020101F098FD002840F03F820C99224601F10043DDE9020101F06FFD002840F02B82A8E00A9A4C4B711E002A49D003EBC103D3E90023C5
:4048C00000204E49FDF706FE22462B46FDF724FBCDE90C01069CDDE9020101F091FD0546FDF768FC02460B46DDE90201FDF714FBDDE90C23303504F8015BCDE9020101F00C
:4049000041FD002840F01D83DDE9022300203749FDF702FBDDE90C2301F034FD002840F0D180069BE31AB3426ADADDE90C0100222F4BFDF7A5FC0022CDE90C01DDE902017C
:404940002B4BFDF79DFCCDE90201C4E703EBC1012246D1E900012B46FDF792FC069BCDE90C011D469C19DDE9020101F049FD0646FDF720FC02460B46DDE90201FDF7CCFA16
:40498000303605F8016BAC42CDE902014FF0000222D11A4BDDE90C01FDF7C0FA02460B46DDE9020101F00CFD002840F08B80DDE90C2300201149FDF7AFFA02460B46DDE93D
:4049C000020101F0DFFCD8B114F8013C621E302B40F0B7821446F7E7054BFDF751FCCDE90201C0E7C0670000986800000000F03F0000244000001C40000014400000E03F20
:404A0000DDE90E34CDE90234139B002B7CDBBBF10E0F79DCAB4B03EBCB03D3E900671F9B002B14DA059B002B11DC40F06C810022A54B30463946FDF723FCDDE9022301F0C1
:404A4000B5FC059D2E46002840F05F8165E1069CDDE9028932463B4640464946FDF73AFD01F0CEFC0546FDF7A5FB32463B46FDF707FC0B46024649464046FDF74DFA05F15C
:404A8000300E069B04F801EBC3EB040E059B73452DD102460B46FDF741FA8046894602460B463046394601F06DFC78B942464B463046394601F05CFC002800F04482EB077C
:404AC00004D440E2DDF820B000E01C4614F8012C631E392A07D1069A9A42F6D1069930220BF1010B0A701A7801321A702BE20022764BFDF7C5FB002200238046894601F06C
:404B000037FC0028A6D01EE20A9A002A2BD01E9A012A0ADC119A12B103F2334302E0129BC3F136033D46444613E0059B5D1EAF42BFBF0B9BEA1B9B180B93059BB6BF2F46AD
:404B40007D1B0025002BA7BF4446059BC3EB08040023079A01211A4450469844079200F05DFE064602E03D4644460A9E5CB1079B002B08DDA342A8BF2346079AC3EB0808B3
:404B8000E41AD31A0793002F1DDD0A9BABB18DB131462A46504600F0DBFE049A01460646504600F044FE04990890504600F059FD089B04937A1B06D000E03A460499504680
:404BC00000F0C6FE04900121504600F027FE0B9B05465BB31A460146504600F0B9FE1E9B0546012B18DC029B83B9039BC3F3130373B9039B23F000473F0D3F054FB1079B00
:404C000008F1010801330793012702E0002700E0029F0B9B73B100E000272B6905EB8303186900F0AEFDC0F1200004E01E9B012BD9DD0B9F0120079B184410F01F0008D0EB
:404C4000C0F12003042B02DDC0F11C0002E006D018461C30079B8044034404440793B8F1000F05DD42460499504600F0BFFE0490079B002B05DD29461A46504600F0B6FE46
:404C80000546109B23B32946049800F000FF00281EDA00230A220499504600F0F9FC0A9B0BF1FF3B0490002B00F05F81314600230A22504600F0ECFCB9F1000F06463FDCE9
:404CC0003BE000BFC06700000000144000002440059B002B2BDC1E9B022B28DDDDF81490B9F1000F11D129464B460522504600F0CFFC01460546049800F0C9FE00280CDCBD
:404D000003E0354600E000252E461F9B069C6FEA030B09E03546DDF820B0069B069A5C1C312313700BF1010B05960026F7E00A9BDDF8149023B9069CB2E01E9B022BCFDCE1
:404D4000002C05DD31462246504600F04FFE06469FB17168504600F04FFC0446326906F10C01023292000C30FDF7ECFF01222146504600F03BFE059000E00596029B069FC8
:404D800003F00103079329460498FFF7D7FA3146044600F13008049800F079FE059A02902946504600F08FFEC36802463BB901460A90049800F06BFE0A9A034600E00123C2
:404DC000114650460A9300F04CFC0A9B53B91E9A42B9079A32B9B8F1390F2AD0029B002B1CDC1DE0029A002A04DB1BD11E9ACAB9079ABAB9002B13DD01220499504600F018
:404E0000F5FD2946049000F042FE002803DC07D118F0010F04D0B8F1390F0AD004F131087C1C0CE0002B07F101040BDDB8F1390F03D139233B70013756E008F1010887F83A
:404E400000806CE0069B2746E31A4B4504F8018C3BD000230A220499504600F019FC059B04909E424FF00A024FF000033146504604D100F00DFC0646059084E700F008FCF4
:404E8000002306460A220599504600F001FC059079E700230A220499504600F0F9FB049029460498FFF74AFA069B00F1300804F8018BE31A4B45ECDB069B0596B9F1010F66
:404EC000ACBF4B4401331F46002601220499504600F08CFD2946049000F0D9FD002803DC15D118F0010F12D03C4614F8013C621E392B09D1069B934204D10BF1010B31234A
:404F0000069A02E01446F0E70133137007E03C4614F8013C621E302B01D11446F8E72946504600F09EFB059B6BB12EB19E4203D03146504600F095FB0599504600F091FB56
:404F400001E0DDF820B00499504600F08AFB0023209A23700BF101031360229B1BB11C6001E008480AE0069808E0B9F1000F3FF7E2AE1E9B022B7FF7DEAEB1E615B0BDE812
:404F8000F08F00BF34670000F0B506694B11B34200F1140527DA11F01F0105EB860605EB830201D1294616E0141D55F823202B46C1F1200ECA40B44209D2276807FA0EF7DD
:404FC0003A4343F8042B54F8042BCA40F3E71A6052B1043308E0B2420B4605D252F8043B41F8043BF7E72B465B1B9B10036103B94361F0BDA0F13003092B01D820380AE0BE
:40500000A0F16103052B01D8473804E0A0F14103052B02D82738C0B27047002070472DE9F04F8BB08A4690460693029000F0CAFA03684FF0000B18460393FEF739FB039B4C
:405040000190034413F8013C0793DAF8003002331F4613F8010B302802D10BF1010BF7E7FFF7C8FF0446E0B9019A0399384601F0C7F8002834D1019BF85CFE18FFF7BAFFCB
:4050800080B3334618781F46302803F10103F9D0FFF7B0FFB0FA80F534466D094FF0010B01E000252C463A46164630780132FFF7A1FF0028F8D1019A0399304601F0A0F84B
:4050C00050B954B9019BF4182246164630780132FFF790FF0028F8D134B1A41BA40003E03E4600E0044601253378502B01D0702B2AD173782B2B08D02D2B03D0711C4FF041
:40510000000905E04FF0010901E04FF00009B11C0878FFF76FFF431EDBB2182B14D8A0F1100211F8010FFFF765FF431EDBB2182B04D80A2303FB0202103AF2E7B9F1000F13
:4051400000D05242144400E03146CAF800102DB1BBF1000F14BF002006207CE12946F31B013B072B02DD01315B10FAE7029800F043FA4FF000090546CB46019B00F1140ADD
:40518000C3F10103CDF810A00893B7422FD2731E0593079A16F8013C93420BD0BBF1200F16D1049BC3F8009004334FF000090493CB460DE0059B089A13449F42EED818460A
:4051C000019A0399099301F01BF8099B68B1E5E716F8010CFFF70EFF00F00F0000FA0BF0059B49EA00090BF1040B1E46CDE7049840F8049BCAEB0000801028614701484627
:4052000000F0BFFAD8F80060381AB04226DD871B3946284600F0B7FDC8B17B1E591103F01F024FF001095AF8211009FA02F20A420ED04B4502DC4FF0020909E0B91E2846B8
:4052400000F0A1FD0028F6D04FF0030900E0814639462846FFF798FE3C440CE009DA371A29463A46029800F0C1FB0546E41B00F1140A4FF00009D8F808309C4208DD02986C
:40528000294600F0EEF9149A00231360A320E2E0D8F80400844253DA041BA6422EDCD8F80C30022B1AD0032B1CD0012B1DD1A6421BD1012E0BDCD8F80430069A622013602D
:4052C00001232B61CAF80030149B1D60C3E0711E284600F058FD0028EDD106E0159B002BE9D002E0159B002BE5D10298294600F0B8F9149A002313605020ACE0671EB9F10F
:40530000000F06D13FB13946284600F03CFD814601E04FF001097A11012307F01F0703FA07F75AF8223021461F42284618BF49F00209361BFFF728FE0227D8F8044000E04A
:405340000127B9F1000F00F08180D8F80C30022B0ED0032B10D0012B76D119F0020F73D0DAF8000049EA000919F0010F07D16BE0159BC3F101031593159B002B64D0D5F830
:4053800010A005F114034FEA8A0903EB090100201A68B2F1FF3F02D001321A6020E043F8040B9942F4D8AB689A4512DB69680298013100F021F983462A6905F10C01023260
:4053C00092000C30FDF7BEFC2946029800F049F95D462B695A1C2A6105EB830301225A61022F05F1140211D1D8F80030013B9E4227D17111012306F01F0603FA06F652F833
:4054000021301E420CBF022701271AE02B699A450ADA01212846FFF7B7FDD8F8083001349C423FF72CAF0BE016F01F0608D0914459F8040C00F0A5F9C6F12006B042E8DBA4
:40544000012747F0200701E047F010073846149B1D60069B1C600BB0BDE8F08FC2F10802920070B5C2F120064368056803FA06F42C43D340046040F8043F8842F4D370BD56
:4054800030B5036811F8014B01334CB11A78A2F14105192D98BF2032A242F3D0002030BD0360012030BD0B682DE9F04F5E1102EB860613F01F0318BF0436351F17460022DE
:4054C0008246A8462C46914685B0D0F800B0019346F8042C00921BF8011F00293CD0084603920291FFF786FD039A00BB0299202916D8009B9945EEDD444505D2072A03DC37
:4055000041462046FFF7AAFFBC4223D90023A4F1040844F8043CCDF8009044461A46DAE7292948D10BF10103CAF8003014E00132082A09F1010906DDBC42CCD9002344F806
:40554000043C0122043C216800F00F0040EA01102060C0E70822BEE7B9F1000F2BD0444505D2072A03DC41462046FFF777FFBC420CD93B4654F8042BA54243F8042BF9D257
:40558000002243F8042B9D42FBD20BE0019B4BB1C3F120024FF0FF33D34056F8042C134046F8043C2B6843B9BD4202D101232B6003E0043DF6E7042000E0052005B0BDE8F3
:4055C000F08F0000004870475081FF1F024B0146186800F055BC00BF4C81FF1F10B5C9B202449042034605D01C7801308C42F8D1184610BD002010BD70B5456A04460E4623
:405600003DB91020FFF7E2FF6062456085600560C560656AEB6843B1636ADB6853F8260078B1026843F8262017E021220421204600F0CBFB636AE860DB68002BECD1002011
:4056400070BD012101FA06F56A1D9200204600F0BCFB0028F3D04660856000230361C36070BD70B5446A06460D463CB91020FFF7ADFF7062446084600460C4603DB1736A8C
:405680006A68DB6853F82210296043F8225070BD2DE9F04106460C460D691F4601F1140E0023DEF80000013381B202FB0171000C0F0C02FB007089B201EB00419D424FEA3E
:4056C00010474EF8041BECDCD7B1A3689D4212DB616830460131FFF78FFF8046226904F10C01023292000C30FDF72CFB21463046FFF7B7FF444604EB850301355F6125615C
:405700002046BDE8F0812DE9F843064615461F46092208330C4693FBF2F3002101229A4202DA52000131FAE73046FFF765FF089B092D43614FF00103036111DD04F109081C
:40574000C1462C4419F8013B0146303B0A223046FFF79EFFA145F5D108EB0504083C01E00A3409252D1B63199F4208DD14F8013B0146303B0A223046FFF78AFFF3E7BDE821
:40578000F883030C1B0413B90004102300E0002310F07F4F04BF0002083310F0704F04BF0001043310F0404F04BF80000233002803DB420003D5581C70471846704720200B
:4057C0007047036813F007020BD0D90722D49A074BBF5B089B08036003604CBF01200220704799B209B91B0C102213F0FF0F04BF1B0A0832190704BF1B090432990704BF15
:405800009B080232D90702D45B0805D00132036010467047002070472020704710B50C460121FFF7E9FE01224461026110BD2DE9F74F14460A69236988469A42BEBF0B46F7
:40584000A0461C46D8F81070D4F81090D8F80830D8F8041007EB09069E42C8BF0131FFF7CBFE00F114052B4605EB860C0022634502D243F8042BFAE704F1140208F11401E0
:4058800002EB890301EB87070093009B0192934257D9B2F800B0BBF1000F23D08946AE464FF0000859F8044BBEF800A0A3B20BFB03A34FEA144ADEF8004043444FEA14485D
:4058C0000BFB0A84F24604EB13449BB243EA04434F454FEA14484AF8043B01D9D646E1E7CEF80480019B0432B3F802A0BAF1000F21D02C4689462B684FF00008B9F800E0AD
:40590000B4F802B09BB20AFB0EBEA346F04443EA08434BF8043B59F8043BB4F804E01B0C0AFB03E34F4503EB18434FEA134801D95C46E3E763600435A7E75CF8043D13B900
:40594000013E002EF9DC066103B0BDE8F08F00002DE9F843154612F0030206460F4607D0214C013A002354F82220FFF791FE0746AD1036D0746A3CB91020FFF727FE70629E
:40598000446084600460C460D6F82480D8F808404CB940F271213046FFF740FF04460023C8F8080003604FF00008EB070AD5394622463046FFF73BFF814639463046FFF7EA
:4059C00050FE4F466D100CD0206808B10446ECE7224621463046FFF72AFF2060C0F80080F4E73846BDE8F883886800002DE9F0470C460746914626694FEA621A5644496836
:405A0000A368751CAB4202DA01315B00FAE73846FFF7F2FD002380461A4600F11401534503DA41F823200133F9E72AEAEA73206901EB830319F01F0904F1140101EB800EBB
:405A400014D0C9F1200C002208689A4600FA09F0024343F8042B51F8042B8E4522FA0CF2F2D8CAF8042042B1B51C06E0043B51F8042B8E4543F8042FF9D8013D3846C8F844
:405A800010502146FFF7EDFD4046BDE8F08703690A6910B59B1A11D192001430143183180A4453F8044D52F8041D8C4202D007D3012010BD9842F4D3002010BD184610BD36
:405AC0004FF0FF3010BD2DE9F8430C460746114620461546FFF7DBFF061E08D131463846FFF78AFD012303614661BDE8F883BCBF23462C4638466168BABF1D46012600260F
:405B0000FFF77AFD2B69C660266905F1140904F1140101EB860709EB830800F114054FF0000C51F8042B59F8044B93B29C44A3B2240CC3EB0C03C4EB124202EB23429BB224
:405B40004FEA224CC84543EA02428E4645F8042BE7D8BE450ED25EF8041B8AB26244131403EB114392B242EA03424FEA234C45F8042BEEE755F8043D0BB9013EFAE70661E7
:405B8000BDE8F883104B0B40A3F15073002B02DD0020194670475B421B15132B4FF000004FF0000104DC4FF4002242FA03F17047143B1E2B4FF00102CEBF1346C3F11F033C
:405BC00002FA03F3184670470000F07FF8B5056900F1140606EB850555F8044C2F1F2046FFF7CFFDC0F120030A280B6014DCC0F10B0E24FA0EF1BE4241F07F5334BF55F8F0
:405C0000081C0021153004FA00F021FA0EF143F4401340EA010223E0BE423ABFA5F1080755F8081C00210B3815D08440C0F1200544F07F5444F44014B74221FA05FE44EA4E
:405C40000E038CBF57F8044C002401FA00F0EC4040EA040204E00A4644F07F5343F4401310461946F8BD2DE9F3411C4601219046089E099DFFF7C0FCC4F31302C4F30A540D
:405C800007460CB142F480120192B8F1000F19D002A840F8088DFFF794FD009B48B1019AC0F1200102FA01F10B43C2407B61019200E07B61019B002B14BF02210121BB617B
:405CC000396107E001A8FFF77CFD019B01217B613961203034B1A4F2334404443460C0F1350009E0A0F2324007EB810330601869FFF747FDC0EB41102860384602B0BDE8CC
:405D0000F0812DE9F743884669468146FFF75EFF0D46044601A94046FFF758FF0F460646D9F81030D8F8102020469A1A9DE80A00C91A01EB4213002BCCBF05EB0355A7EBE2
:405D4000035732463B462946FCF7C4FB03B0BDE8F083013910B549111469013102F1140300EB810103EB8404A342024604D253F8042B40F8042BF7E700238A4202D242F830
:405D8000043BFAE710BD00F1140200694B11984210B50CDB0CDD11F01F0109D052F8234024FA01F000FA01F18C420CD100E0034602EB8303934204D953F8041D0029F9D0C2
:405DC00001E0002010BD012010BD38B502FB01F4214600F055F8054618B122460021FCF7BCFF284638BD000038B50546002944D051F8043C0C1F002BB8BFE41800F030FAD5
:405E00001E4A1368114613B96360146030E0A3420DD92268A018834201BF18685B681218226063600C6023E0A24203D813465A68002AF9D118681918A1420BD12168014456
:405E400058188242196013D110685268014419605A600DE002D90C232B6009E021686018824201BF106852680918216062605C602846BDE8384000F0F4B938BDD881FF1F11
:405E800070B5CD1C25F0030508350C2D38BF0C25002D064601DBA94202D90C23336046E000F0DEF9234B1C681A462146A1B10B685B1B0ED40B2B03D90B60CC18CD501EE0FD
:405EC0008C420BBF63684B681360636018BF0C4615E00C464968E9E7174C23681BB9304600F07AF920602946304600F075F9431C18D0C41C24F00304A0420DD1256030460A
:405F000000F0AFF904F10B00231D20F00700C31A0ED05A42E25070BD211A304600F05CF90130EBD10C233360304600F09AF9002070BD00BFD881FF1FD481FF1F2DE9F047DB
:405F40008E6882469E420C46914698463ED88A8912F4906F3AD02568096902236F1A656905EB450595FBF3F57B1C43449D4238BF1D4653050FD52946FFF782FF064698B109
:405F80003A462169FCF7DEFEA38923F4906343F08003A38113E02A4600F064F9064670B921695046FFF720FF0C23CAF80030A3894FF0FF3043F04003A381BDE8F0872661A6
:405FC0003E44266046466561ED1BA560464528BF464649463246206800F027F9A36800209B1BA36023681E442660BDE8F08700002DE9F04F9DB003938B8980461C060D46A3
:4060000016460DD50B695BB94021FFF739FF2860286118B90C23C8F80030CDE040236B610023099320238DF82930DFF89CB130238DF82A3037463C4614F8013B1BB9B7EB3B
:40604000060910D003E0252BF9D02746F3E74B46324629464046FFF771FF013000F0A780099B4B4409933B78002B00F0A08000234FF0FF3204930793059206938DF8533089
:406080001A930126052221784E48FFF7A7FA671C049B38B14B4A3C46801A06FA00F018430490EFE7D90644BF20228DF853201A0744BF2B228DF8532022782A2A03D0079AC7
:4060C00000210A200BE0039A111D12680391002A10DA524243F00200079204900BE027463B780134303B092B03D800FB02320121F5E701B107923B782E2B1ED17B782A2B12
:406100000AD1039B02371A1D1B680392002BB8BF4FF0FF33059310E0002319460593781C0A2407463A780130303A092A03D804FB01210123F5E703B1059103223978224894
:40614000FFF74CFA40B14023CBEB000003FA00F0049B013718430490397806221B487E1C8DF82810FFF73AFA88B1194B33B9039B073323F007030833039314E003AB0093E5
:406180002A46144B04A94046FCF780FE07E003AB00932A460F4B04A94046FDF731F9B0F1FF3F824603D0099B5344099342E7AB895B0601D4099801E04FF0FF301DB0BDE8E3
:4061C000F08F00BFC0680000C6680000CA6800008D2E00003D5F000038B5064C0023054608462360FAF750FC431C02D1236803B12B6038BD9C82FF1F004870470000C07F5C
:4062000030B582B1451E013915F8013F11F8014FA34206D1EC431444E04201D0002BF3D11C46181B30BD104630BD884210B501EB020301D8421E0BE09842FBD28118D21A49
:40624000D34204D013F8014D01F8014DF8E710BD994204D011F8014B02F8014FF8E710BD70477047F8B5074615460E4621B91146BDE8F840FFF704BE1AB9FFF7B5FD284629
:40628000F8BD00F015F885420ED929463846FFF7F7FD044650B131462A46FCF753FD31463846FFF7A1FD01E03046F8BD2046F8BD51F8040C0028BEBF091851F8043CC01802
:4062C000043870474FF0FF3C06E000BF4FF0010C02E000BF4FF0010C4DF804CD4FEA410C7FEA6C5C4FEA430C18BF7FEA6C5C1BD001B050EA410C0CBF52EA430C91EA030FF0
:4063000002BF90EA020F0020704710F1000F91EA030F58BF994208BF90422CBFD8176FEAE37040F0010070474FEA410C7FEA6C5C02D150EA013C07D14FEA430C7FEA6C5C12
:40634000D6D152EA033CD3D05DF8040B704700BF8446104662468C461946634600E000BF01B5FFF7B7FF002848BF10F1000F01BD4DF808EDFFF7F4FF0CBF012000205DF85A
:4063800008FB00BF4DF808EDFFF7EAFF34BF012000205DF808FB00BF4DF808EDFFF7E0FF94BF012000205DF808FB00BF4DF808EDFFF7CEFF94BF012000205DF808FB00BF55
:4063C0004DF808EDFFF7C4FF34BF012000205DF808FB00BF4FEA410C7FEA6C5C02D150EA013C0AD14FEA430C7FEA6C5C02D152EA033C02D14FF0000070474FF001007047BC
:406400004FEA410212F5001215D211D56FF47873B3EB625212D94FEAC12343F0004343EA505311F0004F23FA02F018BF404270474FF00000704750EA013005D111F0004025
:4064400008BF6FF0004070474FF00000704700BF4A0011D212F5001211D20DD56FF47873B3EB62520ED44FEAC12343F0004343EA505323FA02F070474FF00000704750EA64
:40648000013002D14FF0FF3070474FF00000704700000000000000004572726F723A2052616E676F20646520704820696E76616C69646F2E0D0A000056616C6F72657320EA
:4064C000726563696269646F732064652070483A20252E32662C20252E32662E0D0A000053656E736F72203120646520416775612C2043616E616C2025643A2025660D0A44
:4065000000000000456C2076616C6F722064656C2070482065733A20252E32662C2061636964610D0A000000456C2076616C6F722064656C2070482065733A20252E326648
:406540002C206261736963610D0A0000456C2076616C6F722064656C2070482065733A20252E32662C20656E2072616E676F0D0A000000004573706572616E646F20646103
:40658000746F732064656C20455350383236360D0A0000004461746F732073696E63726F6E697A61646F7320636F6E20455350383236360D0A000000486179206167756165
:4065C00020656E20656C2074616E7175650D0A004E6F20686179206167756120656E20656C2074616E7175650D0A0000426F6D626120417061676164610D0A00426F6D6235
:406600006120456E63656E646964610D0A000000496E74657272757063696F6E20312061637469766164612E204D656E73616A6520726563696269646F20792070726F63B8
:40664000657361646F20636F7272656374616D656E74652E0D0A0000496E74657272757063696F6E20322061637469766164612E204D656E73616A65207265636962696489
:406680006F20792070726F63657361646F20636F7272656374616D656E74652E0D0A0000496E74657272757063696F6E20332061637469766164612E204D656E73616A655E
:4066C00020726563696269646F20792070726F63657361646F20636F7272656374616D656E74652E0D0A0000004F00400C00405100403000F0510040100000000140001071
:4067000000140140000800400140000A004C0140000200500140200060520040400C004806004300494E4600696E66004E414E006E616E00300030313233343536373839F1
:4067400041424344454600303132333435363738396162636465660034000000CEFBFFFFCB030000010000000000000035000000CEFBFFFFCB03000001000000000000008D
:40678000BC89D897B2D29C3C33A7A8D523F649393DA7F444FD0FA5329D978CCF08BA5B25436FAC6428066811496E66696E697479004E614E00504F534958002E0000000096
:4067C000000000000000F03F000000000000244000000000000059400000000000408F40000000000088C34000000000006AF8400000000080842E4100000000D012634138
:406800000000000084D797410000000065CDCD41000000205FA00242000000E876483742000000A2941A6D42000040E59C30A2420000901EC4BCD64200003426F56B0C4340
:406840000080E03779C3414300A0D8855734764300C84E676DC1AB43003D9160E458E143408CB5781DAF154450EFE2D6E41A4B4492D54D06CFF08044F64AE1C7022DB5446A
:40688000B49DD9794378EA4405000000190000007D000000000000000080E03779C34143176E05B5B5B89346F5F93FE9034F384D321D30F94877825A3CBF737FDD4F157532
:4068C000232D302B2000686C4C0065666745464700000000F8B500BFF8BC08BC9E4670474D000000750B0000F8B500BFF8BC08BC9E4670472900000008690000C880FF1FDE
:40690000C00000001801000000000000A082FF1F807F00000300000000366E01C05D0000180000000000E02EFFFFFFFF000000000000000000000000000000000000000058
:40694000000000000000000000000000226700000000000000000000000000000000000000000000000000000000000000000000000000000000000000000000000000008E
:40698000000000000000000000000000EC80FF1FBB670000C5680000C5680000C5680000C5680000C5680000C5680000C5680000C5680000C5680000FFFFFFFFFFFFFFFF9E
:4069C000FFFFFFFFFFFF000000000000000000000000000000000000000000000000000000000000000000000000000000000000000000000000000000000000000000009D
:406A00000000000000000000000000000000000000000000000000000000000000000000000000000000000000000000000000000000000000000000000000000000000056
:406A40000000000000000000000000000000000000000000000000000000000000000000000000000000000000000000000000000000000000000000000000000000000016
:406A800000000000000000000000000000000000000000000000000000000000000000000000000000000000000000000000000000000000000000000000000000000000D6
:406AC0000000000000000000000000000000000000000000000000000000000000000000000000000000000000000000000000000000000000000000000000000000000096
:020000040003F7
:0200000480007A
:40000000024F004003520040015B0040046400400465004023000140310101404802014043030140350401404D050140280601404C0701404D0801404F090140200A01401A
:40004000460B01403A0C01403E0D0140481401404415014025160140481701405418014051190140321A0140461B01400A4001400B41014015420140094301400546014038
:40008000044701400248014008490140014C01400A4D01400C5001400251014001400A1B00020106181027848072870F88388A02850F870F89388A7203010E011103150205
:4000C00025033103340139023F014004460449FF4A074BFF4C404D204EF04F05500856025713580459045A045B045D225F01604061A862406320D804D904DB04DF0100083B
:4001000001040202060307400A040B500D100F6012A114801504180419201A041B10204029242A022D042E20310932A0348036A0388039263A203B513C043E023F40404009
:400140004B0152405A02680869506B106D807094C095C27EC43DCA67CC3FCEDFD001D60108070C050E021C07200724072A072C032E04300432013602580459045F0180809A
:40018000812082028303858086188740888089C08A658C488E869111930E94E6950C9611971399C09C609D409E8B9F80A201A308A4A0A911AB06AF0CB007B130B30FB4F81B
:4001C000B5C0B902BA02BB08C034C106C50CC6BEC80DC9FFCAFFCBFFCEF0CF44D00CD804D904DA04DC22DD02DF01E6C0EA40EB0200840240038A06020704084009080F0282
:4002000010201301148016201760180419011E901F4020802118221023042B8A314933103502376439103B053C083E22410143084A084B08502051406440650186028E22DE
:400240008F40902891529301948096029A409B109D059E229F40A088A140A404A508A6A2B404C0CFC285C4FCCA0DCCFFCEE7D003D204E608EA0400200210030404F00518F4
:40028000080309080A0C0D1C0E080FE2101011441260140A15E716041718180319801A041C031D101E0421C022052440261027C328F029DC2B212C802DFF3070311F320F54
:4002C00033D83480372039803A083B2A580459045C225F018401B001BE01D804D904DF0100800398040406080706084009080A400B080E830F101008114013051480172172
:4003000019061A401B2A1F012040211022A4280A29022B202D202E21308032163721386839023E083F1249404A02824086808884902C91C09220930D9480960298409B104B
:400340009C809D449E209F24A0C8A108A301A404A708A901AA18AD42AE80AF01B110B240B340C0EFC2BFC45FCAAFCCAFCEEFE004E408E601EA20EC01EE881C0132013E045A
:40038000580459045F018518880189088D1C8F23910395279601971899029A019D109E01A001A101A340A727A918AB27AD3FB001B140B31CB538B703BB20BE01D401D80424
:4003C000D904DB04DC20DD20DF01000802800309052006080701081009090BC90D400E010FD0104512101484163017061A401D04202421012240280A2BA02E282F40308037
:4004000032143302348036A0370138683C08581059045A417C0C8A048E218F20906891A09228930995029602971098429B019C089F06A080A109A3AAA601A840A921AB2078
:40044000AD60AE40AF80B002B220B701C0CFC2BFC47FCAEFCCBFCE4ED60FE603EA41EC08EE01020304090610070108400B04110214141503182C19031A111C1C1E2220107A
:4004800028302A0C2B04301F310434603503382839203E043F11401541064202440346CE480C49FF4AFF4BFF4C624DA04EF04F41500C54185604580459045A045B045C011C
:4004C0005D225F016640670269106A306B106D106E106F12840E8A018C08900492029601A40EA802AA04B006B401B608BE10D203D302D804D904DB04DC01DF010028030168
:400500000404050106080AA00E0A0F10110412041501172019801A881B021C841D051F1025122B912C043041310232083627372038603E284404460247084C014D2055401C
:4005400056205C0264096740680869808104868487408A028C018F1090709101921095809640984899209A489B08A108A208A391A408A550A810AA10AB80AF20B120B420B6
:40058000C077C2ECC456CA2BCCEACE6CD070D230D680D8B0E0C0E210E82006041501250126012E02300231013201340439023B083F015602573E580459045B0C5C105F019A
:4005C00087018F04920193029B04A702B304B503B601BF14D804D904DF01004803C00450074008500A800B100C100D010F2210221208178018201A801B191F80210A2718EE
:4006000028202FA9300831043440369A37803D883F324408471059046102688669066B04706079808104861088108B0890509101921093029480958496409A489F04A20AE1
:40064000A4A2A510A680A799A880AF80B202C0DDC2FFC487CAF2CCF2CEF0D602D801DE08E220E601EC20070133014002454049FF4A074BFF4C404D204EF04F05500856087A
:40068000580459045A045B045D915F01604061A8624063208302850886088B088C028D0291809210934094019520971099019C049D04A204A304A510A601A720A808AB013A
:4006C000AD40AE02AF80B1FFB21FB808BE04BF01D401D804D904DB0CDF0100400104028504100504084409020A080C400F2010A0114012081404168119041A1021022410E1
